{
  "_format": "hh-sol-artifact-1",
  "contractName": "Staking",
  "sourceName": "contracts/Staking.sol",
  "abi": [
    {
      "inputs": [],
      "stateMutability": "nonpayable",
      "type": "constructor"
    },
    {
      "inputs": [
        {
          "internalType": "address",
          "name": "owner",
          "type": "address"
        }
      ],
      "name": "OwnableInvalidOwner",
      "type": "error"
    },
    {
      "inputs": [
        {
          "internalType": "address",
          "name": "account",
          "type": "address"
        }
      ],
      "name": "OwnableUnauthorizedAccount",
      "type": "error"
    },
    {
      "anonymous": false,
      "inputs": [
        {
          "indexed": true,
          "internalType": "address",
          "name": "previousOwner",
          "type": "address"
        },
        {
          "indexed": true,
          "internalType": "address",
          "name": "newOwner",
          "type": "address"
        }
      ],
      "name": "OwnershipTransferred",
      "type": "event"
    },
    {
      "anonymous": false,
      "inputs": [
        {
          "indexed": true,
          "internalType": "address",
          "name": "user",
          "type": "address"
        },
        {
          "indexed": false,
          "internalType": "uint256",
          "name": "amount",
          "type": "uint256"
        }
      ],
      "name": "RewardDistributed",
      "type": "event"
    },
    {
      "anonymous": false,
      "inputs": [
        {
          "indexed": true,
          "internalType": "address",
          "name": "user",
          "type": "address"
        },
        {
          "indexed": false,
          "internalType": "uint256",
          "name": "amount",
          "type": "uint256"
        },
        {
          "indexed": false,
          "internalType": "string",
          "name": "githubUsername",
          "type": "string"
        }
      ],
      "name": "Staked",
      "type": "event"
    },
    {
      "anonymous": false,
      "inputs": [
        {
          "indexed": true,
          "internalType": "address",
          "name": "user",
          "type": "address"
        },
        {
          "indexed": false,
          "internalType": "uint256",
          "name": "amount",
          "type": "uint256"
        },
        {
          "indexed": false,
          "internalType": "uint256",
          "name": "penalty",
          "type": "uint256"
        }
      ],
      "name": "Unstaked",
      "type": "event"
    },
    {
      "inputs": [],
      "name": "PENALTY_PERCENT",
      "outputs": [
        {
          "internalType": "uint256",
          "name": "",
          "type": "uint256"
        }
      ],
      "stateMutability": "view",
      "type": "function"
    },
    {
      "inputs": [],
      "name": "STAKE_PERIOD",
      "outputs": [
        {
          "internalType": "uint256",
          "name": "",
          "type": "uint256"
        }
      ],
      "stateMutability": "view",
      "type": "function"
    },
    {
      "inputs": [
        {
          "internalType": "address[]",
          "name": "topUsers",
          "type": "address[]"
        },
        {
          "internalType": "uint256[]",
          "name": "rewards",
          "type": "uint256[]"
        }
      ],
      "name": "distributeTopContributors",
      "outputs": [],
      "stateMutability": "nonpayable",
      "type": "function"
    },
    {
      "inputs": [],
      "name": "getTotalStaked",
      "outputs": [
        {
          "internalType": "uint256",
          "name": "",
          "type": "uint256"
        }
      ],
      "stateMutability": "view",
      "type": "function"
    },
    {
      "inputs": [],
      "name": "owner",
      "outputs": [
        {
          "internalType": "address",
          "name": "",
          "type": "address"
        }
      ],
      "stateMutability": "view",
      "type": "function"
    },
    {
      "inputs": [],
      "name": "renounceOwnership",
      "outputs": [],
      "stateMutability": "nonpayable",
      "type": "function"
    },
    {
      "inputs": [],
      "name": "rewardDistributor",
      "outputs": [
        {
          "internalType": "contract IRewardDistribution",
          "name": "",
          "type": "address"
        }
      ],
      "stateMutability": "view",
      "type": "function"
    },
    {
      "inputs": [
        {
          "internalType": "address",
          "name": "_rewardDistributor",
          "type": "address"
        }
      ],
      "name": "setRewardDistributor",
      "outputs": [],
      "stateMutability": "nonpayable",
      "type": "function"
    },
    {
      "inputs": [
        {
          "internalType": "address",
          "name": "_yieldPool",
          "type": "address"
        }
      ],
      "name": "setYieldPool",
      "outputs": [],
      "stateMutability": "nonpayable",
      "type": "function"
    },
    {
      "inputs": [
        {
          "internalType": "string",
          "name": "githubUsername",
          "type": "string"
        }
      ],
      "name": "stake",
      "outputs": [],
      "stateMutability": "payable",
      "type": "function"
    },
    {
      "inputs": [
        {
          "internalType": "uint256",
          "name": "",
          "type": "uint256"
        }
      ],
      "name": "stakers",
      "outputs": [
        {
          "internalType": "address",
          "name": "",
          "type": "address"
        }
      ],
      "stateMutability": "view",
      "type": "function"
    },
    {
      "inputs": [
        {
          "internalType": "address",
          "name": "",
          "type": "address"
        }
      ],
      "name": "stakes",
      "outputs": [
        {
          "internalType": "uint256",
          "name": "amount",
          "type": "uint256"
        },
        {
          "internalType": "uint256",
          "name": "lastStakedTime",
          "type": "uint256"
        },
        {
          "internalType": "string",
          "name": "githubUsername",
          "type": "string"
        }
      ],
      "stateMutability": "view",
      "type": "function"
    },
    {
      "inputs": [],
      "name": "totalStaked",
      "outputs": [
        {
          "internalType": "uint256",
          "name": "",
          "type": "uint256"
        }
      ],
      "stateMutability": "view",
      "type": "function"
    },
    {
      "inputs": [
        {
          "internalType": "address",
          "name": "newOwner",
          "type": "address"
        }
      ],
      "name": "transferOwnership",
      "outputs": [],
      "stateMutability": "nonpayable",
      "type": "function"
    },
    {
      "inputs": [
        {
          "internalType": "uint256",
          "name": "amount",
          "type": "uint256"
        }
      ],
      "name": "unstake",
      "outputs": [],
      "stateMutability": "nonpayable",
      "type": "function"
    },
    {
      "inputs": [],
      "name": "yieldPool",
      "outputs": [
        {
          "internalType": "contract IYieldPool",
          "name": "",
          "type": "address"
        }
      ],
      "stateMutability": "view",
      "type": "function"
    },
    {
      "stateMutability": "payable",
      "type": "receive"
    }
  ],
  "bytecode": "0x6080604052348015600f57600080fd5b503380603557604051631e4fbdf760e01b81526000600482015260240160405180910390fd5b603c816041565b506091565b600080546001600160a01b038381166001600160a01b0319831681178455604051919092169283917f8be0079c531659141344cd1fd0a4f28419497f9722a3daafe3b4186f6b6457e09190a35050565b610ff4806100a06000396000f3fe6080604052600436106100f75760003560e01c80638da5cb5b1161008a578063acc2166a11610059578063acc2166a1461027d578063dd4b18231461029d578063f2fde38b146102b4578063fd5e6dd1146102d457600080fd5b80638da5cb5b146101f65780638f188dd4146102285780638fa0401614610248578063a1809b951461025d57600080fd5b80636c53236b116100c65780636c53236b1461018b578063715018a6146101ab5780637dc5a14b146101c0578063817b1cd2146101e057600080fd5b80630917e7761461010357806316934fc4146101275780632e17de781461015657806346f45b8d1461017857600080fd5b366100fe57005b600080fd5b34801561010f57600080fd5b506005545b6040519081526020015b60405180910390f35b34801561013357600080fd5b50610147610142366004610ae1565b6102f4565b60405161011e93929190610b49565b34801561016257600080fd5b50610176610171366004610b71565b61039f565b005b610176610186366004610bd1565b6105d1565b34801561019757600080fd5b506101766101a6366004610ae1565b610768565b3480156101b757600080fd5b50610176610792565b3480156101cc57600080fd5b506101766101db366004610cfc565b6107a6565b3480156101ec57600080fd5b5061011460055481565b34801561020257600080fd5b506000546001600160a01b03165b6040516001600160a01b03909116815260200161011e565b34801561023457600080fd5b50600254610210906001600160a01b031681565b34801561025457600080fd5b50610114600581565b34801561026957600080fd5b50610176610278366004610ae1565b6109b6565b34801561028957600080fd5b50600154610210906001600160a01b031681565b3480156102a957600080fd5b5061011462093a8081565b3480156102c057600080fd5b506101766102cf366004610ae1565b6109e0565b3480156102e057600080fd5b506102106102ef366004610b71565b610a1e565b6003602052600090815260409020805460018201546002830180549293919261031c90610dc5565b80601f016020809104026020016040519081016040528092919081815260200182805461034890610dc5565b80156103955780601f1061036a57610100808354040283529160200191610395565b820191906000526020600020905b81548152906001019060200180831161037857829003601f168201915b5050505050905083565b600081116104055760405162461bcd60e51b815260206004820152602860248201527f556e7374616b6520616d6f756e74206d7573742062652067726561746572207460448201526768616e207a65726f60c01b60648201526084015b60405180910390fd5b336000908152600360205260409020548111156104645760405162461bcd60e51b815260206004820152601b60248201527f496e73756666696369656e74207374616b65642062616c616e6365000000000060448201526064016103fc565b336000908152600360205260408120600101546104859062093a8090610e15565b4210156104b2576064610499600584610e2e565b6104a39190610e45565b90506104af8183610e67565b91505b6104bc8183610e15565b33600090815260036020526040812080549091906104db908490610e67565b9250508190555081600560008282546104f49190610e67565b9091555050604051600090339084908381818185875af1925050503d806000811461053b576040519150601f19603f3d011682016040523d82523d6000602084013e610540565b606091505b50509050806105915760405162461bcd60e51b815260206004820152601a60248201527f4661696c656420746f2073656e6420434f524520746f6b656e7300000000000060448201526064016103fc565b604080518481526020810184905233917f7fc4727e062e336010f2c282598ef5f14facb3de68cf8195c2f23e1454b2b74e910160405180910390a2505050565b600034116106215760405162461bcd60e51b815260206004820152601d60248201527f43616e6e6f74207374616b65207a65726f20434f524520746f6b656e7300000060448201526064016103fc565b60008151116106725760405162461bcd60e51b815260206004820152601860248201527f47697448756220757365726e616d65207265717569726564000000000000000060448201526064016103fc565b3360009081526003602052604081205490036106cb57600480546001810182556000919091527f8a35acfbc15ff81a39ae7d344fd709f28e8600b4aa8c65c6b64bfe7fe36bd19b0180546001600160a01b031916331790555b33600090815260036020526040812080543492906106ea908490610e15565b90915550503360009081526003602052604090204260018201556002016107118282610ec8565b5034600560008282546107249190610e15565b909155505060405133907f78a806bb7699c94c8bf510c6ae4c7d16f8a7465865bee03d1a5d2c572f7c128b9061075d9034908590610f87565b60405180910390a250565b610770610a48565b600280546001600160a01b0319166001600160a01b0392909216919091179055565b61079a610a48565b6107a46000610a75565b565b6107ae610a48565b80518251146107f35760405162461bcd60e51b81526020600482015260116024820152704d69736d6174636865642061727261797360781b60448201526064016103fc565b60005b82518110156109b15760006003600085848151811061081757610817610fa8565b60200260200101516001600160a01b03166001600160a01b0316815260200190815260200160002060000154116108865760405162461bcd60e51b815260206004820152601360248201527255736572206973206e6f74207374616b696e6760681b60448201526064016103fc565b60025483516001600160a01b039091169063bd4ba9c0908590849081106108af576108af610fa8565b60200260200101518484815181106108c9576108c9610fa8565b60200260200101516040518363ffffffff1660e01b81526004016109029291906001600160a01b03929092168252602082015260400190565b600060405180830381600087803b15801561091c57600080fd5b505af1158015610930573d6000803e3d6000fd5b5050505082818151811061094657610946610fa8565b60200260200101516001600160a01b03167fe34918ff1c7084970068b53fd71ad6d8b04e9f15d3886cbf006443e6cdc52ea683838151811061098a5761098a610fa8565b60200260200101516040516109a191815260200190565b60405180910390a26001016107f6565b505050565b6109be610a48565b600180546001600160a01b0319166001600160a01b0392909216919091179055565b6109e8610a48565b6001600160a01b038116610a1257604051631e4fbdf760e01b8152600060048201526024016103fc565b610a1b81610a75565b50565b60048181548110610a2e57600080fd5b6000918252602090912001546001600160a01b0316905081565b6000546001600160a01b031633146107a45760405163118cdaa760e01b81523360048201526024016103fc565b600080546001600160a01b038381166001600160a01b0319831681178455604051919092169283917f8be0079c531659141344cd1fd0a4f28419497f9722a3daafe3b4186f6b6457e09190a35050565b80356001600160a01b0381168114610adc57600080fd5b919050565b600060208284031215610af357600080fd5b610afc82610ac5565b9392505050565b6000815180845260005b81811015610b2957602081850181015186830182015201610b0d565b506000602082860101526020601f19601f83011685010191505092915050565b838152826020820152606060408201526000610b686060830184610b03565b95945050505050565b600060208284031215610b8357600080fd5b5035919050565b634e487b7160e01b600052604160045260246000fd5b604051601f8201601f1916810167ffffffffffffffff81118282101715610bc957610bc9610b8a565b604052919050565b600060208284031215610be357600080fd5b813567ffffffffffffffff811115610bfa57600080fd5b8201601f81018413610c0b57600080fd5b803567ffffffffffffffff811115610c2557610c25610b8a565b610c38601f8201601f1916602001610ba0565b818152856020838501011115610c4d57600080fd5b81602084016020830137600091810160200191909152949350505050565b600067ffffffffffffffff821115610c8557610c85610b8a565b5060051b60200190565b600082601f830112610ca057600080fd5b8135610cb3610cae82610c6b565b610ba0565b8082825260208201915060208360051b860101925085831115610cd557600080fd5b602085015b83811015610cf2578035835260209283019201610cda565b5095945050505050565b60008060408385031215610d0f57600080fd5b823567ffffffffffffffff811115610d2657600080fd5b8301601f81018513610d3757600080fd5b8035610d45610cae82610c6b565b8082825260208201915060208360051b850101925087831115610d6757600080fd5b6020840193505b82841015610d9057610d7f84610ac5565b825260209384019390910190610d6e565b9450505050602083013567ffffffffffffffff811115610daf57600080fd5b610dbb85828601610c8f565b9150509250929050565b600181811c90821680610dd957607f821691505b602082108103610df957634e487b7160e01b600052602260045260246000fd5b50919050565b634e487b7160e01b600052601160045260246000fd5b80820180821115610e2857610e28610dff565b92915050565b8082028115828204841417610e2857610e28610dff565b600082610e6257634e487b7160e01b600052601260045260246000fd5b500490565b81810381811115610e2857610e28610dff565b601f8211156109b157806000526020600020601f840160051c81016020851015610ea15750805b601f840160051c820191505b81811015610ec15760008155600101610ead565b5050505050565b815167ffffffffffffffff811115610ee257610ee2610b8a565b610ef681610ef08454610dc5565b84610e7a565b6020601f821160018114610f2a5760008315610f125750848201515b600019600385901b1c1916600184901b178455610ec1565b600084815260208120601f198516915b82811015610f5a5787850151825560209485019460019092019101610f3a565b5084821015610f785786840151600019600387901b60f8161c191681555b50505050600190811b01905550565b828152604060208201526000610fa06040830184610b03565b949350505050565b634e487b7160e01b600052603260045260246000fdfea2646970667358221220cc71ed4438b2e2a57fb1ac131e62a5a67a7fec8f851abef3cbf78173afd9cfea64736f6c634300081c0033",
  "linkReferences": {},
  "deployedLinkReferences": {}
}