{
  "_format": "hh-sol-artifact-1",
  "contractName": "Staking",
  "sourceName": "contracts/Staking.sol",
  "abi": [
    {
      "inputs": [],
      "stateMutability": "nonpayable",
      "type": "constructor"
    },
    {
      "inputs": [
        {
          "internalType": "address",
          "name": "owner",
          "type": "address"
        }
      ],
      "name": "OwnableInvalidOwner",
      "type": "error"
    },
    {
      "inputs": [
        {
          "internalType": "address",
          "name": "account",
          "type": "address"
        }
      ],
      "name": "OwnableUnauthorizedAccount",
      "type": "error"
    },
    {
      "anonymous": false,
      "inputs": [
        {
          "indexed": true,
          "internalType": "address",
          "name": "previousOwner",
          "type": "address"
        },
        {
          "indexed": true,
          "internalType": "address",
          "name": "newOwner",
          "type": "address"
        }
      ],
      "name": "OwnershipTransferred",
      "type": "event"
    },
    {
      "anonymous": false,
      "inputs": [
        {
          "indexed": true,
          "internalType": "address",
          "name": "user",
          "type": "address"
        },
        {
          "indexed": false,
          "internalType": "uint256",
          "name": "amount",
          "type": "uint256"
        }
      ],
      "name": "Staked",
      "type": "event"
    },
    {
      "anonymous": false,
      "inputs": [
        {
          "indexed": true,
          "internalType": "address",
          "name": "user",
          "type": "address"
        },
        {
          "indexed": false,
          "internalType": "uint256",
          "name": "amount",
          "type": "uint256"
        },
        {
          "indexed": false,
          "internalType": "uint256",
          "name": "penalty",
          "type": "uint256"
        }
      ],
      "name": "Unstaked",
      "type": "event"
    },
    {
      "inputs": [],
      "name": "MIN_STAKE_PERIOD",
      "outputs": [
        {
          "internalType": "uint256",
          "name": "",
          "type": "uint256"
        }
      ],
      "stateMutability": "view",
      "type": "function"
    },
    {
      "inputs": [],
      "name": "PENALTY_RATE",
      "outputs": [
        {
          "internalType": "uint256",
          "name": "",
          "type": "uint256"
        }
      ],
      "stateMutability": "view",
      "type": "function"
    },
    {
      "inputs": [],
      "name": "claimReward",
      "outputs": [],
      "stateMutability": "nonpayable",
      "type": "function"
    },
    {
      "inputs": [],
      "name": "getTotalStaked",
      "outputs": [
        {
          "internalType": "uint256",
          "name": "",
          "type": "uint256"
        }
      ],
      "stateMutability": "view",
      "type": "function"
    },
    {
      "inputs": [],
      "name": "owner",
      "outputs": [
        {
          "internalType": "address",
          "name": "",
          "type": "address"
        }
      ],
      "stateMutability": "view",
      "type": "function"
    },
    {
      "inputs": [],
      "name": "renounceOwnership",
      "outputs": [],
      "stateMutability": "nonpayable",
      "type": "function"
    },
    {
      "inputs": [],
      "name": "rewardDistributor",
      "outputs": [
        {
          "internalType": "contract IRewardDistribution",
          "name": "",
          "type": "address"
        }
      ],
      "stateMutability": "view",
      "type": "function"
    },
    {
      "inputs": [
        {
          "internalType": "address",
          "name": "_rewardDistributor",
          "type": "address"
        }
      ],
      "name": "setRewardDistributor",
      "outputs": [],
      "stateMutability": "nonpayable",
      "type": "function"
    },
    {
      "inputs": [
        {
          "internalType": "address",
          "name": "_yieldPool",
          "type": "address"
        }
      ],
      "name": "setYieldPool",
      "outputs": [],
      "stateMutability": "nonpayable",
      "type": "function"
    },
    {
      "inputs": [],
      "name": "stake",
      "outputs": [],
      "stateMutability": "payable",
      "type": "function"
    },
    {
      "inputs": [
        {
          "internalType": "address",
          "name": "",
          "type": "address"
        }
      ],
      "name": "stakes",
      "outputs": [
        {
          "internalType": "uint256",
          "name": "amount",
          "type": "uint256"
        },
        {
          "internalType": "uint256",
          "name": "lastStakedTime",
          "type": "uint256"
        }
      ],
      "stateMutability": "view",
      "type": "function"
    },
    {
      "inputs": [],
      "name": "totalStaked",
      "outputs": [
        {
          "internalType": "uint256",
          "name": "",
          "type": "uint256"
        }
      ],
      "stateMutability": "view",
      "type": "function"
    },
    {
      "inputs": [
        {
          "internalType": "address",
          "name": "newOwner",
          "type": "address"
        }
      ],
      "name": "transferOwnership",
      "outputs": [],
      "stateMutability": "nonpayable",
      "type": "function"
    },
    {
      "inputs": [
        {
          "internalType": "uint256",
          "name": "amount",
          "type": "uint256"
        }
      ],
      "name": "unstake",
      "outputs": [],
      "stateMutability": "nonpayable",
      "type": "function"
    },
    {
      "inputs": [],
      "name": "yieldPool",
      "outputs": [
        {
          "internalType": "contract IYieldPool",
          "name": "",
          "type": "address"
        }
      ],
      "stateMutability": "view",
      "type": "function"
    },
    {
      "stateMutability": "payable",
      "type": "receive"
    }
  ],
  "bytecode": "0x6080604052348015600f57600080fd5b503380603557604051631e4fbdf760e01b81526000600482015260240160405180910390fd5b603c816041565b506091565b600080546001600160a01b038381166001600160a01b0319831681178455604051919092169283917f8be0079c531659141344cd1fd0a4f28419497f9722a3daafe3b4186f6b6457e09190a35050565b610800806100a06000396000f3fe6080604052600436106100ec5760003560e01c8063817b1cd21161008a578063acc2166a11610059578063acc2166a14610262578063b88a802f14610282578063d342f48414610297578063f2fde38b146102ae57600080fd5b8063817b1cd2146101da5780638da5cb5b146101f05780638f188dd414610222578063a1809b951461024257600080fd5b80632e17de78116100c65780632e17de781461017b5780633a4b66f11461019d5780636c53236b146101a5578063715018a6146101c557600080fd5b80630917e776146100f85780630ad08b861461011c57806316934fc41461013257600080fd5b366100f357005b600080fd5b34801561010457600080fd5b506004545b6040519081526020015b60405180910390f35b34801561012857600080fd5b506101096101f481565b34801561013e57600080fd5b5061016661014d366004610706565b6003602052600090815260409020805460019091015482565b60408051928352602083019190915201610113565b34801561018757600080fd5b5061019b610196366004610736565b6102ce565b005b61019b610494565b3480156101b157600080fd5b5061019b6101c0366004610706565b61056c565b3480156101d157600080fd5b5061019b610596565b3480156101e657600080fd5b5061010960045481565b3480156101fc57600080fd5b506000546001600160a01b03165b6040516001600160a01b039091168152602001610113565b34801561022e57600080fd5b5060025461020a906001600160a01b031681565b34801561024e57600080fd5b5061019b61025d366004610706565b6105aa565b34801561026e57600080fd5b5060015461020a906001600160a01b031681565b34801561028e57600080fd5b5061019b6105d4565b3480156102a357600080fd5b5061010962093a8081565b3480156102ba57600080fd5b5061019b6102c9366004610706565b61064b565b336000908152600360205260409020548111156103295760405162461bcd60e51b8152602060048201526014602482015273496e73756666696369656e742062616c616e636560601b60448201526064015b60405180910390fd5b3360009081526003602052604081206001015461034a9062093a8090610765565b42101561036d576127106103606101f48461077e565b61036a9190610795565b90505b600061037982846107b7565b3360009081526003602052604081208054929350859290919061039d9084906107b7565b9250508190555082600460008282546103b691906107b7565b9091555050604051600090339083908381818185875af1925050503d80600081146103fd576040519150601f19603f3d011682016040523d82523d6000602084013e610402565b606091505b50509050806104535760405162461bcd60e51b815260206004820152601a60248201527f4661696c656420746f2073656e6420434f524520746f6b656e730000000000006044820152606401610320565b604080518581526020810185905233917f7fc4727e062e336010f2c282598ef5f14facb3de68cf8195c2f23e1454b2b74e910160405180910390a250505050565b600034116104e45760405162461bcd60e51b815260206004820152601d60248201527f43616e6e6f74207374616b65207a65726f20434f524520746f6b656e730000006044820152606401610320565b3360009081526003602052604081208054349290610503908490610765565b90915550503360009081526003602052604081204260019091015560048054349290610530908490610765565b909155505060405134815233907f9e71bc8eea02a63969f509818f2dafb9254532904319f9dbda79b67bd34a5f3d9060200160405180910390a2565b610574610689565b600280546001600160a01b0319166001600160a01b0392909216919091179055565b61059e610689565b6105a860006106b6565b565b6105b2610689565b600180546001600160a01b0319166001600160a01b0392909216919091179055565b600154336000818152600360205260409081902054905163a8031a1d60e01b8152600481019290925260248201526001600160a01b039091169063a8031a1d90604401600060405180830381600087803b15801561063157600080fd5b505af1158015610645573d6000803e3d6000fd5b50505050565b610653610689565b6001600160a01b03811661067d57604051631e4fbdf760e01b815260006004820152602401610320565b610686816106b6565b50565b6000546001600160a01b031633146105a85760405163118cdaa760e01b8152336004820152602401610320565b600080546001600160a01b038381166001600160a01b0319831681178455604051919092169283917f8be0079c531659141344cd1fd0a4f28419497f9722a3daafe3b4186f6b6457e09190a35050565b60006020828403121561071857600080fd5b81356001600160a01b038116811461072f57600080fd5b9392505050565b60006020828403121561074857600080fd5b5035919050565b634e487b7160e01b600052601160045260246000fd5b808201808211156107785761077861074f565b92915050565b80820281158282048414176107785761077861074f565b6000826107b257634e487b7160e01b600052601260045260246000fd5b500490565b818103818111156107785761077861074f56fea2646970667358221220a1a8c71a3ebc1b3e91d7958447381a656028797667353570e17dd8e673cb27db64736f6c634300081c0033",
  "linkReferences": {},
  "deployedLinkReferences": {}
}