{
  "_format": "hh-sol-artifact-1",
  "contractName": "YieldPool",
  "sourceName": "contracts/YieldPool.sol",
  "abi": [
    {
      "inputs": [],
      "stateMutability": "nonpayable",
      "type": "constructor"
    },
    {
      "inputs": [
        {
          "internalType": "address",
          "name": "owner",
          "type": "address"
        }
      ],
      "name": "OwnableInvalidOwner",
      "type": "error"
    },
    {
      "inputs": [
        {
          "internalType": "address",
          "name": "account",
          "type": "address"
        }
      ],
      "name": "OwnableUnauthorizedAccount",
      "type": "error"
    },
    {
      "anonymous": false,
      "inputs": [
        {
          "indexed": true,
          "internalType": "address",
          "name": "previousOwner",
          "type": "address"
        },
        {
          "indexed": true,
          "internalType": "address",
          "name": "newOwner",
          "type": "address"
        }
      ],
      "name": "OwnershipTransferred",
      "type": "event"
    },
    {
      "anonymous": false,
      "inputs": [
        {
          "indexed": true,
          "internalType": "address",
          "name": "user",
          "type": "address"
        },
        {
          "indexed": false,
          "internalType": "uint256",
          "name": "amount",
          "type": "uint256"
        }
      ],
      "name": "YieldDistributed",
      "type": "event"
    },
    {
      "inputs": [],
      "name": "addYield",
      "outputs": [],
      "stateMutability": "payable",
      "type": "function"
    },
    {
      "inputs": [
        {
          "internalType": "address",
          "name": "user",
          "type": "address"
        },
        {
          "internalType": "uint256",
          "name": "amount",
          "type": "uint256"
        }
      ],
      "name": "distributeYield",
      "outputs": [],
      "stateMutability": "nonpayable",
      "type": "function"
    },
    {
      "inputs": [],
      "name": "getPoolBalance",
      "outputs": [
        {
          "internalType": "uint256",
          "name": "",
          "type": "uint256"
        }
      ],
      "stateMutability": "view",
      "type": "function"
    },
    {
      "inputs": [],
      "name": "owner",
      "outputs": [
        {
          "internalType": "address",
          "name": "",
          "type": "address"
        }
      ],
      "stateMutability": "view",
      "type": "function"
    },
    {
      "inputs": [],
      "name": "renounceOwnership",
      "outputs": [],
      "stateMutability": "nonpayable",
      "type": "function"
    },
    {
      "inputs": [],
      "name": "totalYieldPool",
      "outputs": [
        {
          "internalType": "uint256",
          "name": "",
          "type": "uint256"
        }
      ],
      "stateMutability": "view",
      "type": "function"
    },
    {
      "inputs": [
        {
          "internalType": "address",
          "name": "newOwner",
          "type": "address"
        }
      ],
      "name": "transferOwnership",
      "outputs": [],
      "stateMutability": "nonpayable",
      "type": "function"
    },
    {
      "stateMutability": "payable",
      "type": "receive"
    }
  ],
  "bytecode": "0x6080604052348015600f57600080fd5b503380603557604051631e4fbdf760e01b81526000600482015260240160405180910390fd5b603c816041565b506091565b600080546001600160a01b038381166001600160a01b0319831681178455604051919092169283917f8be0079c531659141344cd1fd0a4f28419497f9722a3daafe3b4186f6b6457e09190a35050565b6104aa806100a06000396000f3fe6080604052600436106100745760003560e01c8063993c36e11161004e578063993c36e1146100cc578063abd70aa2146100f0578063bd4ba9c014610105578063f2fde38b1461012557600080fd5b80632848443a14610080578063715018a61461008a5780638da5cb5b1461009f57600080fd5b3661007b57005b600080fd5b610088610145565b005b34801561009657600080fd5b50610088610166565b3480156100ab57600080fd5b506000546040516001600160a01b0390911681526020015b60405180910390f35b3480156100d857600080fd5b506100e260015481565b6040519081526020016100c3565b3480156100fc57600080fd5b506001546100e2565b34801561011157600080fd5b506100886101203660046103e6565b61017a565b34801561013157600080fd5b50610088610140366004610410565b61030f565b61014d61034d565b346001600082825461015f9190610448565b9091555050565b61016e61034d565b610178600061037a565b565b600081116101c65760405162461bcd60e51b8152602060048201526014602482015273125b9d985b1a59081e5a595b1908185b5bdd5b9d60621b60448201526064015b60405180910390fd5b6001548111156102185760405162461bcd60e51b815260206004820152601960248201527f496e73756666696369656e7420706f6f6c2062616c616e63650000000000000060448201526064016101bd565b806001600082825461022a9190610461565b90915550506040516000906001600160a01b0384169083908381818185875af1925050503d806000811461027a576040519150601f19603f3d011682016040523d82523d6000602084013e61027f565b606091505b50509050806102c75760405162461bcd60e51b815260206004820152601460248201527311985a5b1959081d1bc81cd95b99081e5a595b1960621b60448201526064016101bd565b826001600160a01b03167f9d315883dbfe38532083c1e42c0d10fbf89ad1cabaa0c269f78b3beb892c101d8360405161030291815260200190565b60405180910390a2505050565b61031761034d565b6001600160a01b03811661034157604051631e4fbdf760e01b8152600060048201526024016101bd565b61034a8161037a565b50565b6000546001600160a01b031633146101785760405163118cdaa760e01b81523360048201526024016101bd565b600080546001600160a01b038381166001600160a01b0319831681178455604051919092169283917f8be0079c531659141344cd1fd0a4f28419497f9722a3daafe3b4186f6b6457e09190a35050565b80356001600160a01b03811681146103e157600080fd5b919050565b600080604083850312156103f957600080fd5b610402836103ca565b946020939093013593505050565b60006020828403121561042257600080fd5b61042b826103ca565b9392505050565b634e487b7160e01b600052601160045260246000fd5b8082018082111561045b5761045b610432565b92915050565b8181038181111561045b5761045b61043256fea264697066735822122021f8d9ac800bd58c5239a6f65da08a36a74d4c32ff84deb1afbbb77c3ac8532564736f6c634300081c0033",
  "linkReferences": {},
  "deployedLinkReferences": {}
}