{
  "_format": "hh-sol-artifact-1",
  "contractName": "YieldPool",
  "sourceName": "contracts/YieldPool.sol",
  "abi": [
    {
      "inputs": [],
      "stateMutability": "nonpayable",
      "type": "constructor"
    },
    {
      "inputs": [
        {
          "internalType": "address",
          "name": "owner",
          "type": "address"
        }
      ],
      "name": "OwnableInvalidOwner",
      "type": "error"
    },
    {
      "inputs": [
        {
          "internalType": "address",
          "name": "account",
          "type": "address"
        }
      ],
      "name": "OwnableUnauthorizedAccount",
      "type": "error"
    },
    {
      "anonymous": false,
      "inputs": [
        {
          "indexed": true,
          "internalType": "address",
          "name": "previousOwner",
          "type": "address"
        },
        {
          "indexed": true,
          "internalType": "address",
          "name": "newOwner",
          "type": "address"
        }
      ],
      "name": "OwnershipTransferred",
      "type": "event"
    },
    {
      "inputs": [],
      "name": "addYield",
      "outputs": [],
      "stateMutability": "payable",
      "type": "function"
    },
    {
      "inputs": [
        {
          "internalType": "address",
          "name": "user",
          "type": "address"
        },
        {
          "internalType": "uint256",
          "name": "amount",
          "type": "uint256"
        }
      ],
      "name": "distributeYield",
      "outputs": [],
      "stateMutability": "nonpayable",
      "type": "function"
    },
    {
      "inputs": [],
      "name": "owner",
      "outputs": [
        {
          "internalType": "address",
          "name": "",
          "type": "address"
        }
      ],
      "stateMutability": "view",
      "type": "function"
    },
    {
      "inputs": [],
      "name": "renounceOwnership",
      "outputs": [],
      "stateMutability": "nonpayable",
      "type": "function"
    },
    {
      "inputs": [],
      "name": "totalYieldPool",
      "outputs": [
        {
          "internalType": "uint256",
          "name": "",
          "type": "uint256"
        }
      ],
      "stateMutability": "view",
      "type": "function"
    },
    {
      "inputs": [
        {
          "internalType": "address",
          "name": "newOwner",
          "type": "address"
        }
      ],
      "name": "transferOwnership",
      "outputs": [],
      "stateMutability": "nonpayable",
      "type": "function"
    },
    {
      "stateMutability": "payable",
      "type": "receive"
    }
  ],
  "bytecode": "0x6080604052348015600f57600080fd5b503380603557604051631e4fbdf760e01b81526000600482015260240160405180910390fd5b603c816041565b506091565b600080546001600160a01b038381166001600160a01b0319831681178455604051919092169283917f8be0079c531659141344cd1fd0a4f28419497f9722a3daafe3b4186f6b6457e09190a35050565b610437806100a06000396000f3fe6080604052600436106100595760003560e01c80632848443a14610065578063715018a61461006f5780638da5cb5b14610084578063993c36e1146100b1578063bd4ba9c0146100d5578063f2fde38b146100f557600080fd5b3661006057005b600080fd5b61006d610115565b005b34801561007b57600080fd5b5061006d610136565b34801561009057600080fd5b506000546040516001600160a01b0390911681526020015b60405180910390f35b3480156100bd57600080fd5b506100c760015481565b6040519081526020016100a8565b3480156100e157600080fd5b5061006d6100f0366004610373565b61014a565b34801561010157600080fd5b5061006d61011036600461039d565b61029c565b61011d6102da565b346001600082825461012f91906103d5565b9091555050565b61013e6102da565b6101486000610307565b565b600081116101965760405162461bcd60e51b8152602060048201526014602482015273125b9d985b1a59081e5a595b1908185b5bdd5b9d60621b60448201526064015b60405180910390fd5b6001548111156101e85760405162461bcd60e51b815260206004820152601960248201527f496e73756666696369656e7420706f6f6c2062616c616e636500000000000000604482015260640161018d565b80600160008282546101fa91906103ee565b90915550506040516000906001600160a01b0384169083908381818185875af1925050503d806000811461024a576040519150601f19603f3d011682016040523d82523d6000602084013e61024f565b606091505b50509050806102975760405162461bcd60e51b815260206004820152601460248201527311985a5b1959081d1bc81cd95b99081e5a595b1960621b604482015260640161018d565b505050565b6102a46102da565b6001600160a01b0381166102ce57604051631e4fbdf760e01b81526000600482015260240161018d565b6102d781610307565b50565b6000546001600160a01b031633146101485760405163118cdaa760e01b815233600482015260240161018d565b600080546001600160a01b038381166001600160a01b0319831681178455604051919092169283917f8be0079c531659141344cd1fd0a4f28419497f9722a3daafe3b4186f6b6457e09190a35050565b80356001600160a01b038116811461036e57600080fd5b919050565b6000806040838503121561038657600080fd5b61038f83610357565b946020939093013593505050565b6000602082840312156103af57600080fd5b6103b882610357565b9392505050565b634e487b7160e01b600052601160045260246000fd5b808201808211156103e8576103e86103bf565b92915050565b818103818111156103e8576103e86103bf56fea26469706673582212205ce1236a8651ae5993532f3741b2ea34d7323c165a7c96349c96b00efecc414464736f6c634300081c0033",
  "linkReferences": {},
  "deployedLinkReferences": {}
}